202512010080000600000000000000000484000000000000000004849600000000000031105041CORTES EMILIANO               000000582718600000000000000000000000000000000000000000000000000000000000000000000000000000000000000000000000000000000000PES00010000001000000000000000000000000
202512010080000600000000000000000485000000000000000004859600000000000031105041CORTES EMILIANO               000000640553367000000000000000000000000000000000000000000000000000000000000000000000000000000000000000000000000000000000PES00010000001000000000000000000000000
202512010010000600000000000000001952000000000000000019528000000000033659591699INSTITUTO MEDICO DEAN FUNES S 000000080000021000000000000000000000000000000000000000000000000000000000000000000000000000000000000000000000000000000000PES00010000001000000000000000000000000
202512010060000600000000000000004231000000000000000042318000000000030550857061COLEGIO DE FARMACEUTICOS DE LA000000325000000000000000000000000000000000000000000000000000000000000000000000000000000000000000000000000000000000000000PES00010000001000000000000000000000000
202512010060000600000000000000004232000000000000000042328000000000030627393713DIRECCION GENERAL DE CULTURA Y000001102038700000000000000000000000000000000000000000000000000000000000000000000000000000000000000000000000000000000000PES00010000001000000000000000000000000
202512010060000600000000000000004233000000000000000042339900000000000811205325Staatsoberkasse en Landshut   000000640553367000000000000000000000000000000000000000000000000000000000000000000000000000000000000000000000000000000000PES00010000001000000000000000000000000
202512020060000600000000000000004234000000000000000042348000000000030627393713DIRECCION GENERAL DE CULTURA Y000000092972110000000000000000000000000000000000000000000000000000000000000000000000000000000000000000000000000000000000PES00010000001000000000000000000000000
202512020060000600000000000000004235000000000000000042358000000000030627393713DIRECCION GENERAL DE CULTURA Y000000038560155000000000000000000000000000000000000000000000000000000000000000000000000000000000000000000000000000000000PES00010000001000000000000000000000000
202512020060000600000000000000004236000000000000000042368000000000030550857061COLEGIO DE FARMACEUTICOS DE LA000000059200000000000000000000000000000000000000000000000000000000000000000000000000000000000000000000000000000000000000PES00010000001000000000000000000000000
202512020060000600000000000000004237000000000000000042378000000000030550857061COLEGIO DE FARMACEUTICOS DE LA000000014400000000000000000000000000000000000000000000000000000000000000000000000000000000000000000000000000000000000000PES00010000001000000000000000000000000
202512020080000600000000000000000486000000000000000004869900000000000811205325Staatsoberkasse en Landshut   000000640553367000000000000000000000000000000000000000000000000000000000000000000000000000000000000000000000000000000000PES00010000001000000000000000000000000
202512020060000600000000000000004238000000000000000042389900000000000811205325Staatsoberkasse en Landshut   000000582718600000000000000000000000000000000000000000000000000000000000000000000000000000000000000000000000000000000000PES00010000001000000000000000000000000
202512020060000600000000000000004239000000000000000042398000000000030708499044INSTITUTO CULTURAL DE LA PROV 000000109376250000000000000000000000000000000000000000000000000000000000000000000000000000000000000000000000000000000000PES00010000001000000000000000000000000
202512020060000600000000000000004240000000000000000042408000000000030716742292MINISTERIO DE MUJERES Y DIVERS000000012000000000000000000000000000000000000000000000000000000000000000000000000000000000000000000000000000000000000000PES00010000001000000000000000000000000
202512020060000600000000000000004241000000000000000042418000000000030643908995FUNDACION CIENCIAS EXACTAS    000000255000000000000000000000000000000000000000000000000000000000000000000000000000000000000000000000000000000000000000PES00010000001000000000000000000000000
202512020060000600000000000000004242000000000000000042428000000000030627393713DIRECCION GENERAL DE CULTURA Y000000010000000000000000000000000000000000000000000000000000000000000000000000000000000000000000000000000000000000000000PES00010000001000000000000000000000000
202512030060000600000000000000004243000000000000000042438000000000030627393713DIRECCION GENERAL DE CULTURA Y000000736289190000000000000000000000000000000000000000000000000000000000000000000000000000000000000000000000000000000000PES00010000001000000000000000000000000
202512030060000600000000000000004244000000000000000042448000000000030708499044INSTITUTO CULTURAL DE LA PROV 000000141907580000000000000000000000000000000000000000000000000000000000000000000000000000000000000000000000000000000000PES00010000001000000000000000000000000
202512030060000600000000000000004245000000000000000042458000000000030710405863MINISTERIO DE AMBIENTE        000000672000000000000000000000000000000000000000000000000000000000000000000000000000000000000000000000000000000000000000PES00010000001000000000000000000000000
202512030060000600000000000000004246000000000000000042468000000000033638161309COLEGIO DE MAGISTRADOS Y FUNCI000000108000000000000000000000000000000000000000000000000000000000000000000000000000000000000000000000000000000000000000PES00010000001000000000000000000000000
202512030060000600000000000000004247000000000000000042478000000000033638161309COLEGIO DE MAGISTRADOS Y FUNCI000000004000000000000000000000000000000000000000000000000000000000000000000000000000000000000000000000000000000000000000PES00010000001000000000000000000000000
202512030060000600000000000000004248000000000000000042488000000000030717321231JEFATURA DE ASESORES DEL GOBER000001690000000000000000000000000000000000000000000000000000000000000000000000000000000000000000000000000000000000000000PES00010000001000000000000000000000000
202512030010000600000000000000001953000000000000000019538000000000030627393713DIRECCION GENERAL DE CULTURA Y000000194200001000000000000000000000000000000000000000000000000000000000000000000000000000000000000000000000000000000000PES00010000001000000000000000000000000
202512030030000600000000000000000087000000000000000000878000000000030627393713DIRECCION GENERAL DE CULTURA Y000000194200000000000000000000000000000000000000000000000000000000000000000000000000000000000000000000000000000000000000PES00010000001000000000000000000000000
202512030010000600000000000000001954000000000000000019548000000000030657877669EMPRESA DISTRIBUIDORA LA PLATA000000194200001000000000000000000000000000000000000000000000000000000000000000000000000000000000000000000000000000000000PES00010000001000000000000000000000000
202512030010000600000000000000001955000000000000000019558000000000030657877669EMPRESA DISTRIBUIDORA LA PLATA000000036000000000000000000000000000000000000000000000000000000000000000000000000000000000000000000000000000000000000000PES00010000001000000000000000000000000
202512030060000600000000000000004249000000000000000042498000000000030627393713DIRECCION GENERAL DE CULTURA Y000000010000000000000000000000000000000000000000000000000000000000000000000000000000000000000000000000000000000000000000PES00010000001000000000000000000000000
202512040060000600000000000000004250000000000000000042508000000000033633178009INSTITUTO DE PREVISION SOCIAL 000000594000000000000000000000000000000000000000000000000000000000000000000000000000000000000000000000000000000000000000PES00010000001000000000000000000000000
202512040060000600000000000000004251000000000000000042518000000000030715124234MINISTERIO DE GOBIERNO BS.AS. 000000490000000000000000000000000000000000000000000000000000000000000000000000000000000000000000000000000000000000000000PES00010000001000000000000000000000000
202512040060000600000000000000004252000000000000000042528000000000030665658313MINISTERIO DE INFRAESTRUCTURA 000000016200000000000000000000000000000000000000000000000000000000000000000000000000000000000000000000000000000000000000PES00010000001000000000000000000000000
202512040010000600000000000000001956000000000000000019568000000000030500008454BANCO SANTANDER ARGENTINA SOCI000000059900284000000000000000000000000000000000000000000000000000000000000000000000000000000000000000000000000000000000PES00010000001000000000000000000000000
202512040060000600000000000000004253000000000000000042538000000000030715124234MINISTERIO DE GOBIERNO BS.AS. 000000490000000000000000000000000000000000000000000000000000000000000000000000000000000000000000000000000000000000000000PES00010000001000000000000000000000000
202512040080000600000000000000000487000000000000000004878000000000030715124234MINISTERIO DE GOBIERNO BS.AS. 000000490000000000000000000000000000000000000000000000000000000000000000000000000000000000000000000000000000000000000000PES00010000001000000000000000000000000
202512040060000600000000000000004254000000000000000042548000000000030550857061COLEGIO DE FARMACEUTICOS DE LA000000123200000000000000000000000000000000000000000000000000000000000000000000000000000000000000000000000000000000000000PES00010000001000000000000000000000000
202512040010000600000000000000001957000000000000000019578000000000030657877669EMPRESA DISTRIBUIDORA LA PLATA000000048000000000000000000000000000000000000000000000000000000000000000000000000000000000000000000000000000000000000000PES00010000001000000000000000000000000
202512040010000600000000000000001958000000000000000019588000000000030657877669EMPRESA DISTRIBUIDORA LA PLATA000000029800000000000000000000000000000000000000000000000000000000000000000000000000000000000000000000000000000000000000PES00010000001000000000000000000000000
202512040010000600000000000000001959000000000000000019598000000000030657877669EMPRESA DISTRIBUIDORA LA PLATA000000012400000000000000000000000000000000000000000000000000000000000000000000000000000000000000000000000000000000000000PES00010000001000000000000000000000000
202512040080000600000000000000000488000000000000000004889900000000000811205325Staatsoberkasse en Landshut   000000582718600000000000000000000000000000000000000000000000000000000000000000000000000000000000000000000000000000000000PES00010000001000000000000000000000000
202512040060000600000000000000004255000000000000000042559900000000000811205325Staatsoberkasse en Landshut   000000642153350000000000000000000000000000000000000000000000000000000000000000000000000000000000000000000000000000000000DOL14530000001000000000000000000000000
202512050060000600000000000000004256000000000000000042568000000000030707045031MINISTERIO DE DESARROLLO DE LA000014770280000000000000000000000000000000000000000000000000000000000000000000000000000000000000000000000000000000000000PES00010000001000000000000000000000000
202512050060000600000000000000004257000000000000000042578000000000030500147497COLEGIO DE ESCRIBANOS DE LA PR000000060000000000000000000000000000000000000000000000000000000000000000000000000000000000000000000000000000000000000000PES00010000001000000000000000000000000
202512050060000600000000000000004258000000000000000042588000000000030627393713DIRECCION GENERAL DE CULTURA Y000000124429430000000000000000000000000000000000000000000000000000000000000000000000000000000000000000000000000000000000PES00010000001000000000000000000000000
202512050060000600000000000000004259000000000000000042598000000000030550857061COLEGIO DE FARMACEUTICOS DE LA000000004800000000000000000000000000000000000000000000000000000000000000000000000000000000000000000000000000000000000000PES00010000001000000000000000000000000
202512050060000600000000000000004260000000000000000042608000000000030718689895ACAPLA ASOCIACION CIVIL       000000162200000000000000000000000000000000000000000000000000000000000000000000000000000000000000000000000000000000000000PES00010000001000000000000000000000000
202512050060000600000000000000004261000000000000000042619400000000000811205325Staatsoberkasse en Landshut   000000638175800000000000000000000000000000000000000000000000000000000000000000000000000000000000000000000000000000000000DOL14440000001000000000000000000000000
202512060060000600000000000000004262000000000000000042628000000000030550857061COLEGIO DE FARMACEUTICOS DE LA000000034400000000000000000000000000000000000000000000000000000000000000000000000000000000000000000000000000000000000000PES00010000001000000000000000000000000
202512060060000600000000000000004263000000000000000042638000000000030707216669PODER JUDICIAL MINISTERIO PUBL000000357000000000000000000000000000000000000000000000000000000000000000000000000000000000000000000000000000000000000000PES00010000001000000000000000000000000
202512060060000600000000000000004264000000000000000042648000000000030707216669PODER JUDICIAL MINISTERIO PUBL000000036000000000000000000000000000000000000000000000000000000000000000000000000000000000000000000000000000000000000000PES00010000001000000000000000000000000
202512060060000600000000000000004265000000000000000042658000000000030707216669PODER JUDICIAL MINISTERIO PUBL000000012000000000000000000000000000000000000000000000000000000000000000000000000000000000000000000000000000000000000000PES00010000001000000000000000000000000
202512090060000600000000000000004266000000000000000042668000000000030627393713DIRECCION GENERAL DE CULTURA Y000000021997720000000000000000000000000000000000000000000000000000000000000000000000000000000000000000000000000000000000PES00010000001000000000000000000000000
202512090060000600000000000000004267000000000000000042678000000000030631291240COLEGIO DE ARQUITECTOS DE LA P000000487500000000000000000000000000000000000000000000000000000000000000000000000000000000000000000000000000000000000000PES00010000001000000000000000000000000
202512090080000600000000000000000489000000000000000004898000000000030631291240COLEGIO DE ARQUITECTOS DE LA P000000487500000000000000000000000000000000000000000000000000000000000000000000000000000000000000000000000000000000000000PES00010000001000000000000000000000000
202512090060000600000000000000004268000000000000000042688000000000030631291240COLEGIO DE ARQUITECTOS DE LA P000000589875000000000000000000000000000000000000000000000000000000000000000000000000000000000000000000000000000000000000PES00010000001000000000000000000000000
202512100060000600000000000000004269000000000000000042698000000000030631291240COLEGIO DE ARQUITECTOS DE LA P000000557205000000000000000000000000000000000000000000000000000000000000000000000000000000000000000000000000000000000000PES00010000001000000000000000000000000
202512100010000600000000000000001960000000000000000019608000000000030559880120JOSE ANACLETO E HIJOS S A     000000020500000000000000000000000000000000000000000000000000000000000000000000000000000000000000000000000000000000000000PES00010000001000000000000000000000000
202512100060000600000000000000004270000000000000000042708000000000030523156043FEDERACION DE CLINICAS SANATOR000000112500000000000000000000000000000000000000000000000000000000000000000000000000000000000000000000000000000000000000PES00010000001000000000000000000000000
202512100010000600000000000000001961000000000000000019618000000000030646558391MARIN CONSTRUCCIONES S A      000000191000000000000000000000000000000000000000000000000000000000000000000000000000000000000000000000000000000000000000PES00010000001000000000000000000000000
202512100060000600000000000000004271000000000000000042718000000000033684854149COMISION DE INVESTIGACIONES CI000000147762800000000000000000000000000000000000000000000000000000000000000000000000000000000000000000000000000000000000PES00010000001000000000000000000000000
202512100060000600000000000000004272000000000000000042728000000000030627393713DIRECCION GENERAL DE CULTURA Y000000377736642000000000000000000000000000000000000000000000000000000000000000000000000000000000000000000000000000000000PES00010000001000000000000000000000000
202512110080000600000000000000000490000000000000000004908000000000030627393713DIRECCION GENERAL DE CULTURA Y000000429553198000000000000000000000000000000000000000000000000000000000000000000000000000000000000000000000000000000000PES00010000001000000000000000000000000
202512110060000600000000000000004273000000000000000042738000000000030627393713DIRECCION GENERAL DE CULTURA Y000000429553198000000000000000000000000000000000000000000000000000000000000000000000000000000000000000000000000000000000PES00010000001000000000000000000000000
202512110060000600000000000000004274000000000000000042748000000000030715904817ORGANISMO PROVINCIAL DE INTEGR000000124000000000000000000000000000000000000000000000000000000000000000000000000000000000000000000000000000000000000000PES00010000001000000000000000000000000
202512110060000600000000000000004275000000000000000042758000000000030717321231JEFATURA DE ASESORES DEL GOBER000000283000000000000000000000000000000000000000000000000000000000000000000000000000000000000000000000000000000000000000PES00010000001000000000000000000000000
202512110060000600000000000000004276000000000000000042768000000000030708499044INSTITUTO CULTURAL DE LA PROV 000000113028580000000000000000000000000000000000000000000000000000000000000000000000000000000000000000000000000000000000PES00010000001000000000000000000000000
202512110060000600000000000000004277000000000000000042778000000000030717321231JEFATURA DE ASESORES DEL GOBER000001661000000000000000000000000000000000000000000000000000000000000000000000000000000000000000000000000000000000000000PES00010000001000000000000000000000000
202512110080000600000000000000000491000000000000000004918000000000030717321231JEFATURA DE ASESORES DEL GOBER000000283000000000000000000000000000000000000000000000000000000000000000000000000000000000000000000000000000000000000000PES00010000001000000000000000000000000
202512110060000600000000000000004278000000000000000042788000000000030717321231JEFATURA DE ASESORES DEL GOBER000000238000000000000000000000000000000000000000000000000000000000000000000000000000000000000000000000000000000000000000PES00010000001000000000000000000000000
202512110060000600000000000000004279000000000000000042798000000000030717321231JEFATURA DE ASESORES DEL GOBER000000646000000000000000000000000000000000000000000000000000000000000000000000000000000000000000000000000000000000000000PES00010000001000000000000000000000000
202512110080000600000000000000000492000000000000000004928000000000030717321231JEFATURA DE ASESORES DEL GOBER000001690000000000000000000000000000000000000000000000000000000000000000000000000000000000000000000000000000000000000000PES00010000001000000000000000000000000
202512120060000600000000000000004280000000000000000042808000000000030643233343MINISTERIO DE ECONOMIA - PBA  000000034000000000000000000000000000000000000000000000000000000000000000000000000000000000000000000000000000000000000000PES00010000001000000000000000000000000
202512120060000600000000000000004281000000000000000042818000000000030716742292MINISTERIO DE MUJERES Y DIVERS000000110000000000000000000000000000000000000000000000000000000000000000000000000000000000000000000000000000000000000000PES00010000001000000000000000020260212
202512120060000600000000000000004282000000000000000042828000000000030687087379FUNDACION DE EDUCACION SUPERIO000000570000000000000000000000000000000000000000000000000000000000000000000000000000000000000000000000000000000000000000PES00010000001000000000000000000000000
202512150060000600000000000000004283000000000000000042838000000000030627393713DIRECCION GENERAL DE CULTURA Y000000195683820000000000000000000000000000000000000000000000000000000000000000000000000000000000000000000000000000000000PES00010000001000000000000000000000000
202512150060000600000000000000004284000000000000000042848000000000030627393713DIRECCION GENERAL DE CULTURA Y000000091728000000000000000000000000000000000000000000000000000000000000000000000000000000000000000000000000000000000000PES00010000001000000000000000000000000
202512160060000600000000000000004285000000000000000042858000000000020122383815LUPI GABRIEL HORACIO          000000021000000000000000000000000000000000000000000000000000000000000000000000000000000000000000000000000000000000000000PES00010000001000000000000000000000000
202512160060000600000000000000004286000000000000000042868000000000030708752297MINISTERIO DE TRABAJO DE LA PR000001520000000000000000000000000000000000000000000000000000000000000000000000000000000000000000000000000000000000000000PES00010000001000000000000000000000000
202512160010000600000000000000001962000000000000000019628000000000027251607864COVELLO JULIETA               000000107000020000000000000000000000000000000000000000000000000000000000000000000000000000000000000000000000000000000000PES00010000001000000000000000000000000
202512160010000600000000000000001963000000000000000019638000000000027251607864COVELLO JULIETA               000000093500016000000000000000000000000000000000000000000000000000000000000000000000000000000000000000000000000000000000PES00010000001000000000000000000000000
202512170060000600000000000000004287000000000000000042878000000000030550857061COLEGIO DE FARMACEUTICOS DE LA000000325000000000000000000000000000000000000000000000000000000000000000000000000000000000000000000000000000000000000000PES00010000001000000000000000000000000
202512170030000600000000000000000088000000000000000000888000000000027251607864COVELLO JULIETA               000000107000020000000000000000000000000000000000000000000000000000000000000000000000000000000000000000000000000000000000PES00010000001000000000000000000000000
202512170060000600000000000000004288000000000000000042888000000000030627393713DIRECCION GENERAL DE CULTURA Y000000157276080000000000000000000000000000000000000000000000000000000000000000000000000000000000000000000000000000000000PES00010000001000000000000000000000000
202512170080000600000000000000000493000000000000000004938000000000033684854149COMISION DE INVESTIGACIONES CI000000147762800000000000000000000000000000000000000000000000000000000000000000000000000000000000000000000000000000000000PES00010000001000000000000000000000000
202512170060000600000000000000004289000000000000000042898000000000033684854149COMISION DE INVESTIGACIONES CI000000147702800000000000000000000000000000000000000000000000000000000000000000000000000000000000000000000000000000000000PES00010000001000000000000000000000000
202512180060000600000000000000004290000000000000000042908000000000030627393713DIRECCION GENERAL DE CULTURA Y000000145078510000000000000000000000000000000000000000000000000000000000000000000000000000000000000000000000000000000000PES00010000001000000000000000000000000
202512180060000600000000000000004291000000000000000042918000000000030716742292MINISTERIO DE MUJERES Y DIVERS000000035000000000000000000000000000000000000000000000000000000000000000000000000000000000000000000000000000000000000000PES00010000001000000000000000000000000
202512180010000600000000000000001964000000000000000019648000000000027225988795NINA MARIA LAURA              000000029700003000000000000000000000000000000000000000000000000000000000000000000000000000000000000000000000000000000000PES00010000001000000000000000000000000
202512180010000600000000000000001965000000000000000019658000000000027225988795NINA MARIA LAURA              000000099000010000000000000000000000000000000000000000000000000000000000000000000000000000000000000000000000000000000000PES00010000001000000000000000000000000
202512180010000600000000000000001966000000000000000019668000000000027225988795NINA MARIA LAURA              000000043000000000000000000000000000000000000000000000000000000000000000000000000000000000000000000000000000000000000000PES00010000001000000000000000000000000
202512180010000600000000000000001967000000000000000019678000000000027225988795NINA MARIA LAURA              000000066000007000000000000000000000000000000000000000000000000000000000000000000000000000000000000000000000000000000000PES00010000001000000000000000000000000
202512180010000600000000000000001968000000000000000019688000000000027225988795NINA MARIA LAURA              000000133300000000000000000000000000000000000000000000000000000000000000000000000000000000000000000000000000000000000000PES00010000001000000000000000000000000
202512180010000600000000000000001969000000000000000019698000000000027225988795NINA MARIA LAURA              000000360000168000000000000000000000000000000000000000000000000000000000000000000000000000000000000000000000000000000000PES00010000001000000000000000000000000
202512190060000600000000000000004292000000000000000042928000000000033633178009INSTITUTO DE PREVISION SOCIAL 000000746350000000000000000000000000000000000000000000000000000000000000000000000000000000000000000000000000000000000000PES00010000001000000000000000000000000
202512190060000600000000000000004293000000000000000042938000000000030710405863MINISTERIO DE AMBIENTE        000000200000000000000000000000000000000000000000000000000000000000000000000000000000000000000000000000000000000000000000PES00010000001000000000000000000000000
202512190060000600000000000000004294000000000000000042948000000000030710405863MINISTERIO DE AMBIENTE        000003900000000000000000000000000000000000000000000000000000000000000000000000000000000000000000000000000000000000000000PES00010000001000000000000000000000000
202512190060000600000000000000004295000000000000000042958000000000030546666707UNIVERSIDAD NACIONAL DE LA PLA000000240000000000000000000000000000000000000000000000000000000000000000000000000000000000000000000000000000000000000000PES00010000001000000000000000000000000
202512190060000600000000000000004296000000000000000042968000000000030707216669PODER JUDICIAL MINISTERIO PUBL000000030000000000000000000000000000000000000000000000000000000000000000000000000000000000000000000000000000000000000000PES00010000001000000000000000000000000
202512190060000600000000000000004297000000000000000042978000000000030707216669PODER JUDICIAL MINISTERIO PUBL000000090000000000000000000000000000000000000000000000000000000000000000000000000000000000000000000000000000000000000000PES00010000001000000000000000000000000
202512190060000600000000000000004298000000000000000042988000000000030708752297MINISTERIO DE TRABAJO DE LA PR000001520000000000000000000000000000000000000000000000000000000000000000000000000000000000000000000000000000000000000000PES00010000001000000000000000000000000
202512190080000600000000000000000494000000000000000004948000000000030708752297MINISTERIO DE TRABAJO DE LA PR000001520000000000000000000000000000000000000000000000000000000000000000000000000000000000000000000000000000000000000000PES00010000001000000000000000000000000
202512190060000600000000000000004299000000000000000042998000000000030707216669PODER JUDICIAL MINISTERIO PUBL000000275000000000000000000000000000000000000000000000000000000000000000000000000000000000000000000000000000000000000000PES00010000001000000000000000000000000
202512190060000600000000000000004300000000000000000043008000000000030708499044INSTITUTO CULTURAL DE LA PROV 000000090490375000000000000000000000000000000000000000000000000000000000000000000000000000000000000000000000000000000000PES00010000001000000000000000000000000
202512220060000600000000000000004301000000000000000043018000000000030546666707UNIVERSIDAD NACIONAL DE LA PLA000000420000000000000000000000000000000000000000000000000000000000000000000000000000000000000000000000000000000000000000PES00010000001000000000000000000000000
202512220060000600000000000000004302000000000000000043028000000000030546666707UNIVERSIDAD NACIONAL DE LA PLA000000105000000000000000000000000000000000000000000000000000000000000000000000000000000000000000000000000000000000000000PES00010000001000000000000000000000000
202512220060000600000000000000004303000000000000000043038000000000030546666707UNIVERSIDAD NACIONAL DE LA PLA000000105000000000000000000000000000000000000000000000000000000000000000000000000000000000000000000000000000000000000000PES00010000001000000000000000000000000
202512232010000600000000000000000004000000000000000000048000000000030657877669EMPRESA DISTRIBUIDORA LA PLATA000000600000280000000000000000000000000000000000000000000000000000000000000000000000000000000000000000000000000000000000PES00010000001000000000000000020251223
202512230060000600000000000000004304000000000000000043048000000000030540780028COLEGIO DE MEDICOS DE LA PROVI000000350000000000000000000000000000000000000000000000000000000000000000000000000000000000000000000000000000000000000000PES00010000001000000000000000000000000
202512230060000600000000000000004305000000000000000043058000000000030715904817ORGANISMO PROVINCIAL DE INTEGR000000365962320000000000000000000000000000000000000000000000000000000000000000000000000000000000000000000000000000000000PES00010000001000000000000000000000000
202512230060000600000000000000004306000000000000000043068000000000030708499044INSTITUTO CULTURAL DE LA PROV 000000113449950000000000000000000000000000000000000000000000000000000000000000000000000000000000000000000000000000000000PES00010000001000000000000000000000000
202512230060000600000000000000004307000000000000000043078000000000030708499044INSTITUTO CULTURAL DE LA PROV 000000403824100000000000000000000000000000000000000000000000000000000000000000000000000000000000000000000000000000000000PES00010000001000000000000000000000000
202512230060000600000000000000004308000000000000000043088000000000030643233343MINISTERIO DE ECONOMIA - PBA  000000294200000000000000000000000000000000000000000000000000000000000000000000000000000000000000000000000000000000000000PES00010000001000000000000000000000000
202512240060000600000000000000004309000000000000000043098000000000030626983398MINISTERIO DE SALUD PCIA DE BS000000274500000000000000000000000000000000000000000000000000000000000000000000000000000000000000000000000000000000000000PES00010000001000000000000000000000000
202512260010000600000000000000001970000000000000000019708000000000030559880120JOSE ANACLETO E HIJOS S A     000000057200000000000000000000000000000000000000000000000000000000000000000000000000000000000000000000000000000000000000PES00010000001000000000000000000000000
202512260010000600000000000000001971000000000000000019718000000000030657877669EMPRESA DISTRIBUIDORA LA PLATA000000009200001000000000000000000000000000000000000000000000000000000000000000000000000000000000000000000000000000000000PES00010000001000000000000000000000000
202512260010000600000000000000001972000000000000000019728000000000030657877669EMPRESA DISTRIBUIDORA LA PLATA000000012000001000000000000000000000000000000000000000000000000000000000000000000000000000000000000000000000000000000000PES00010000001000000000000000000000000
202512260010000600000000000000001973000000000000000019738000000000030657877669EMPRESA DISTRIBUIDORA LA PLATA000000026000190000000000000000000000000000000000000000000000000000000000000000000000000000000000000000000000000000000000PES00010000001000000000000000000000000
202512260010000600000000000000001974000000000000000019748000000000030657877669EMPRESA DISTRIBUIDORA LA PLATA000000055800002000000000000000000000000000000000000000000000000000000000000000000000000000000000000000000000000000000000PES00010000001000000000000000000000000
202512260010000600000000000000001975000000000000000019758000000000030657877669EMPRESA DISTRIBUIDORA LA PLATA000000008000000000000000000000000000000000000000000000000000000000000000000000000000000000000000000000000000000000000000PES00010000001000000000000000000000000
202512260010000600000000000000001976000000000000000019768000000000030657877669EMPRESA DISTRIBUIDORA LA PLATA000000041212101000000000000000000000000000000000000000000000000000000000000000000000000000000000000000000000000000000000PES00010000001000000000000000000000000
202512260010000600000000000000001977000000000000000019778000000000030657877669EMPRESA DISTRIBUIDORA LA PLATA000000064400016000000000000000000000000000000000000000000000000000000000000000000000000000000000000000000000000000000000PES00010000001000000000000000000000000
202512260010000600000000000000001978000000000000000019788000000000030657877669EMPRESA DISTRIBUIDORA LA PLATA000000061400015000000000000000000000000000000000000000000000000000000000000000000000000000000000000000000000000000000000PES00010000001000000000000000000000000
202512260060000600000000000000004310000000000000000043108000000000030546666707UNIVERSIDAD NACIONAL DE LA PLA000000250000000000000000000000000000000000000000000000000000000000000000000000000000000000000000000000000000000000000000PES00010000001000000000000000000000000
202512260080000600000000000000000495000000000000000004958000000000030546666707UNIVERSIDAD NACIONAL DE LA PLA000000105000000000000000000000000000000000000000000000000000000000000000000000000000000000000000000000000000000000000000PES00010000001000000000000000000000000
202512260060000600000000000000004311000000000000000043118000000000030665708825TRIBUNAL DE CUENTAS DE LA PROV000000010650000000000000000000000000000000000000000000000000000000000000000000000000000000000000000000000000000000000000PES00010000001000000000000000000000000
202512260060000600000000000000004312000000000000000043128000000000030665708825TRIBUNAL DE CUENTAS DE LA PROV000000600000000000000000000000000000000000000000000000000000000000000000000000000000000000000000000000000000000000000000PES00010000001000000000000000000000000
202512290060000600000000000000004313000000000000000043138000000000030717458342MINISTERIO DE HABITAT Y DESARR000000158650000000000000000000000000000000000000000000000000000000000000000000000000000000000000000000000000000000000000PES00010000001000000000000000000000000
202512290010000600000000000000001979000000000000000019798000000000027225988795NINA MARIA LAURA              000000094600026000000000000000000000000000000000000000000000000000000000000000000000000000000000000000000000000000000000PES00010000001000000000000000000000000
202512300060000600000000000000004314000000000000000043148000000000030627393713DIRECCION GENERAL DE CULTURA Y000000021998920000000000000000000000000000000000000000000000000000000000000000000000000000000000000000000000000000000000PES00010000001000000000000000000000000
202512300080000600000000000000000496000000000000000004968000000000030627393713DIRECCION GENERAL DE CULTURA Y000000021997720000000000000000000000000000000000000000000000000000000000000000000000000000000000000000000000000000000000PES00010000001000000000000000000000000
202512300060000600000000000000004315000000000000000043158000000000030627393713DIRECCION GENERAL DE CULTURA Y000000177243360000000000000000000000000000000000000000000000000000000000000000000000000000000000000000000000000000000000PES00010000001000000000000000000000000
202512300060000600000000000000004316000000000000000043168000000000030520918694ASOCIACION EMPLEADOS DE LA DIR000000097500000000000000000000000000000000000000000000000000000000000000000000000000000000000000000000000000000000000000PES00010000001000000000000000000000000
202512310080000600000000000000000497000000000000000004978000000000030520918694ASOCIACION EMPLEADOS DE LA DIR000000097500000000000000000000000000000000000000000000000000000000000000000000000000000000000000000000000000000000000000PES00010000001000000000000000000000000
