202602040060000600000000000000004329000000000000000043298000000000030550857061COLEGIO DE FARMACEUTICOS DE LA000000113600000000000000000000000000000000000000000000000000000000000000000000000000000000000000000000000000000000000000PES00010000001000000000000000000000000
202602040060000600000000000000004330000000000000000043308000000000030550857061COLEGIO DE FARMACEUTICOS DE LA000000325000000000000000000000000000000000000000000000000000000000000000000000000000000000000000000000000000000000000000PES00010000001000000000000000000000000
202602050060000600000000000000004331000000000000000043318000000000030627561071FEDERACION ARGENTINA DE CARDIO000000021000000000000000000000000000000000000000000000000000000000000000000000000000000000000000000000000000000000000000PES00010000001000000000000000000000000
202602050010000600000000000000001982000000000000000019828000000000030657877669EMPRESA DISTRIBUIDORA LA PLATA000000014710001000000000000000000000000000000000000000000000000000000000000000000000000000000000000000000000000000000000PES00010000001000000000000000000000000
202602060060000600000000000000004332000000000000000043328000000000030708499044INSTITUTO CULTURAL DE LA PROV 000000199378220000000000000000000000000000000000000000000000000000000000000000000000000000000000000000000000000000000000PES00010000001000000000000000000000000
202602090060000600000000000000004333000000000000000043338000000000030627393713DIRECCION GENERAL DE CULTURA Y000000053126920000000000000000000000000000000000000000000000000000000000000000000000000000000000000000000000000000000000PES00010000001000000000000000000000000
202602110080000600000000000000000499000000000000000004998000000000030627393713DIRECCION GENERAL DE CULTURA Y000000177243360000000000000000000000000000000000000000000000000000000000000000000000000000000000000000000000000000000000PES00010000001000000000000000000000000
202602110060000600000000000000004334000000000000000043348000000000030627393713DIRECCION GENERAL DE CULTURA Y000000177243360000000000000000000000000000000000000000000000000000000000000000000000000000000000000000000000000000000000PES00010000001000000000000000000000000
202602110010000600000000000000001983000000000000000019838000000000030657864281CAMUZZI GAS PAMPEANA S. A.    000000140820405000000000000000000000000000000000000000000000000000000000000000000000000000000000000000000000000000000000PES00010000001000000000000000000000000
202602120080000600000000000000000500000000000000000005008000000000030627393713DIRECCION GENERAL DE CULTURA Y000000177243360000000000000000000000000000000000000000000000000000000000000000000000000000000000000000000000000000000000PES00010000001000000000000000000000000
202602120060000600000000000000004335000000000000000043358000000000030627393713DIRECCION GENERAL DE CULTURA Y000000177243360000000000000000000000000000000000000000000000000000000000000000000000000000000000000000000000000000000000PES00010000001000000000000000000000000
202602120010000600000000000000001984000000000000000019848000000000030657864281CAMUZZI GAS PAMPEANA S. A.    000000069300234000000000000000000000000000000000000000000000000000000000000000000000000000000000000000000000000000000000PES00010000001000000000000000000000000
202602180010000600000000000000001985000000000000000019858000000000027225988795NINA MARIA LAURA              000000022400410000000000000000000000000000000000000000000000000000000000000000000000000000000000000000000000000000000000PES00010000001000000000000000000000000
202602190060000600000000000000004336000000000000000043368000000000030627393713DIRECCION GENERAL DE CULTURA Y000000091919770000000000000000000000000000000000000000000000000000000000000000000000000000000000000000000000000000000000PES00010000001000000000000000000000000
202602240080000600000000000000000501000000000000000005018000000000030627393713DIRECCION GENERAL DE CULTURA Y000000321167550000000000000000000000000000000000000000000000000000000000000000000000000000000000000000000000000000000000PES00010000001000000000000000000000000
202602240060000600000000000000004337000000000000000043378000000000030627393713DIRECCION GENERAL DE CULTURA Y000000321167550000000000000000000000000000000000000000000000000000000000000000000000000000000000000000000000000000000000PES00010000001000000000000000000000000
202602250060000600000000000000004338000000000000000043388000000000030707216650PODER JUDICIAL ADMINISTRACION 000000149000000000000000000000000000000000000000000000000000000000000000000000000000000000000000000000000000000000000000PES00010000001000000000000000000000000
202602250080000600000000000000000502000000000000000005028000000000030708499044INSTITUTO CULTURAL DE LA PROV 000000199378220000000000000000000000000000000000000000000000000000000000000000000000000000000000000000000000000000000000PES00010000001000000000000000000000000
202602250060000600000000000000004339000000000000000043398000000000030708499044INSTITUTO CULTURAL DE LA PROV 000000194385560000000000000000000000000000000000000000000000000000000000000000000000000000000000000000000000000000000000PES00010000001000000000000000000000000
202602250010000600000000000000001986000000000000000019868000000000027225988795NINA MARIA LAURA              000000061601129000000000000000000000000000000000000000000000000000000000000000000000000000000000000000000000000000000000PES00010000001000000000000000000000000
202602260060000600000000000000004340000000000000000043408000000000030627393713DIRECCION GENERAL DE CULTURA Y000000153354960000000000000000000000000000000000000000000000000000000000000000000000000000000000000000000000000000000000PES00010000001000000000000000000000000
202602260060000600000000000000004341000000000000000043418000000000030627393713DIRECCION GENERAL DE CULTURA Y000000157276080000000000000000000000000000000000000000000000000000000000000000000000000000000000000000000000000000000000PES00010000001000000000000000000000000
202602260060000600000000000000004342000000000000000043428000000000030710958811CONSEJO FEDERAL DE REGISTROS D000000200000000000000000000000000000000000000000000000000000000000000000000000000000000000000000000000000000000000000000PES00010000001000000000000000000000000
202602260060000600000000000000004343000000000000000043438000000000030546666561UNIVERSIDAD DE BUENOS AIRES   000000112000000000000000000000000000000000000000000000000000000000000000000000000000000000000000000000000000000000000000PES00010000001000000000000000000000000
202602260060000600000000000000004344000000000000000043448000000000030627393713DIRECCION GENERAL DE CULTURA Y000000084451910000000000000000000000000000000000000000000000000000000000000000000000000000000000000000000000000000000000PES00010000001000000000000000000000000
202602260010000600000000000000001987000000000000000019878000000000027225988795NINA MARIA LAURA              000000078400014000000000000000000000000000000000000000000000000000000000000000000000000000000000000000000000000000000000PES00010000001000000000000000000000000
202602260010000600000000000000001988000000000000000019888000000000027225988795NINA MARIA LAURA              000000215200034000000000000000000000000000000000000000000000000000000000000000000000000000000000000000000000000000000000PES00010000001000000000000000000000000
202602280060000600000000000000004345000000000000000043458000000000033638161309COLEGIO DE MAGISTRADOS Y FUNCI000000004640000000000000000000000000000000000000000000000000000000000000000000000000000000000000000000000000000000000000PES00010000001000000000000000000000000
